{
  "_format": "hh-sol-artifact-1",
  "contractName": "BrandNFT",
  "sourceName": "contracts/BrandNFT.sol",
  "abi": [
    {
      "inputs": [],
      "stateMutability": "nonpayable",
      "type": "constructor"
    },
    {
      "anonymous": false,
      "inputs": [
        {
          "indexed": true,
          "internalType": "address",
          "name": "owner",
          "type": "address"
        },
        {
          "indexed": true,
          "internalType": "address",
          "name": "approved",
          "type": "address"
        },
        {
          "indexed": true,
          "internalType": "uint256",
          "name": "tokenId",
          "type": "uint256"
        }
      ],
      "name": "Approval",
      "type": "event"
    },
    {
      "anonymous": false,
      "inputs": [
        {
          "indexed": true,
          "internalType": "address",
          "name": "owner",
          "type": "address"
        },
        {
          "indexed": true,
          "internalType": "address",
          "name": "operator",
          "type": "address"
        },
        {
          "indexed": false,
          "internalType": "bool",
          "name": "approved",
          "type": "bool"
        }
      ],
      "name": "ApprovalForAll",
      "type": "event"
    },
    {
      "anonymous": false,
      "inputs": [
        {
          "indexed": true,
          "internalType": "address",
          "name": "previousOwner",
          "type": "address"
        },
        {
          "indexed": true,
          "internalType": "address",
          "name": "newOwner",
          "type": "address"
        }
      ],
      "name": "OwnershipTransferred",
      "type": "event"
    },
    {
      "anonymous": false,
      "inputs": [
        {
          "indexed": true,
          "internalType": "address",
          "name": "from",
          "type": "address"
        },
        {
          "indexed": true,
          "internalType": "address",
          "name": "to",
          "type": "address"
        },
        {
          "indexed": true,
          "internalType": "uint256",
          "name": "tokenId",
          "type": "uint256"
        }
      ],
      "name": "Transfer",
      "type": "event"
    },
    {
      "inputs": [
        {
          "internalType": "string",
          "name": "_tokenURI",
          "type": "string"
        }
      ],
      "name": "MintNFT",
      "outputs": [],
      "stateMutability": "nonpayable",
      "type": "function"
    },
    {
      "inputs": [
        {
          "internalType": "address",
          "name": "to",
          "type": "address"
        },
        {
          "internalType": "uint256",
          "name": "tokenId",
          "type": "uint256"
        }
      ],
      "name": "approve",
      "outputs": [],
      "stateMutability": "nonpayable",
      "type": "function"
    },
    {
      "inputs": [
        {
          "internalType": "address",
          "name": "owner",
          "type": "address"
        }
      ],
      "name": "balanceOf",
      "outputs": [
        {
          "internalType": "uint256",
          "name": "",
          "type": "uint256"
        }
      ],
      "stateMutability": "view",
      "type": "function"
    },
    {
      "inputs": [
        {
          "internalType": "uint256",
          "name": "tokenId",
          "type": "uint256"
        }
      ],
      "name": "getApproved",
      "outputs": [
        {
          "internalType": "address",
          "name": "",
          "type": "address"
        }
      ],
      "stateMutability": "view",
      "type": "function"
    },
    {
      "inputs": [],
      "name": "getMintedBrands",
      "outputs": [
        {
          "components": [
            {
              "internalType": "address",
              "name": "nftOwner",
              "type": "address"
            },
            {
              "internalType": "uint256",
              "name": "tokenId",
              "type": "uint256"
            },
            {
              "internalType": "string",
              "name": "tokenURI",
              "type": "string"
            }
          ],
          "internalType": "struct BrandNFT.mintedToken[]",
          "name": "",
          "type": "tuple[]"
        }
      ],
      "stateMutability": "view",
      "type": "function"
    },
    {
      "inputs": [
        {
          "internalType": "address",
          "name": "owner",
          "type": "address"
        },
        {
          "internalType": "address",
          "name": "operator",
          "type": "address"
        }
      ],
      "name": "isApprovedForAll",
      "outputs": [
        {
          "internalType": "bool",
          "name": "",
          "type": "bool"
        }
      ],
      "stateMutability": "view",
      "type": "function"
    },
    {
      "inputs": [],
      "name": "latestMintAddress",
      "outputs": [
        {
          "internalType": "address",
          "name": "",
          "type": "address"
        }
      ],
      "stateMutability": "view",
      "type": "function"
    },
    {
      "inputs": [],
      "name": "name",
      "outputs": [
        {
          "internalType": "string",
          "name": "",
          "type": "string"
        }
      ],
      "stateMutability": "view",
      "type": "function"
    },
    {
      "inputs": [],
      "name": "owner",
      "outputs": [
        {
          "internalType": "address",
          "name": "",
          "type": "address"
        }
      ],
      "stateMutability": "view",
      "type": "function"
    },
    {
      "inputs": [
        {
          "internalType": "uint256",
          "name": "tokenId",
          "type": "uint256"
        }
      ],
      "name": "ownerOf",
      "outputs": [
        {
          "internalType": "address",
          "name": "",
          "type": "address"
        }
      ],
      "stateMutability": "view",
      "type": "function"
    },
    {
      "inputs": [],
      "name": "renounceOwnership",
      "outputs": [],
      "stateMutability": "nonpayable",
      "type": "function"
    },
    {
      "inputs": [
        {
          "internalType": "address",
          "name": "from",
          "type": "address"
        },
        {
          "internalType": "address",
          "name": "to",
          "type": "address"
        },
        {
          "internalType": "uint256",
          "name": "tokenId",
          "type": "uint256"
        }
      ],
      "name": "safeTransferFrom",
      "outputs": [],
      "stateMutability": "nonpayable",
      "type": "function"
    },
    {
      "inputs": [
        {
          "internalType": "address",
          "name": "from",
          "type": "address"
        },
        {
          "internalType": "address",
          "name": "to",
          "type": "address"
        },
        {
          "internalType": "uint256",
          "name": "tokenId",
          "type": "uint256"
        },
        {
          "internalType": "bytes",
          "name": "_data",
          "type": "bytes"
        }
      ],
      "name": "safeTransferFrom",
      "outputs": [],
      "stateMutability": "nonpayable",
      "type": "function"
    },
    {
      "inputs": [
        {
          "internalType": "address",
          "name": "operator",
          "type": "address"
        },
        {
          "internalType": "bool",
          "name": "approved",
          "type": "bool"
        }
      ],
      "name": "setApprovalForAll",
      "outputs": [],
      "stateMutability": "nonpayable",
      "type": "function"
    },
    {
      "inputs": [
        {
          "internalType": "bytes4",
          "name": "interfaceId",
          "type": "bytes4"
        }
      ],
      "name": "supportsInterface",
      "outputs": [
        {
          "internalType": "bool",
          "name": "",
          "type": "bool"
        }
      ],
      "stateMutability": "view",
      "type": "function"
    },
    {
      "inputs": [],
      "name": "symbol",
      "outputs": [
        {
          "internalType": "string",
          "name": "",
          "type": "string"
        }
      ],
      "stateMutability": "view",
      "type": "function"
    },
    {
      "inputs": [
        {
          "internalType": "uint256",
          "name": "tokenId",
          "type": "uint256"
        }
      ],
      "name": "tokenURI",
      "outputs": [
        {
          "internalType": "string",
          "name": "",
          "type": "string"
        }
      ],
      "stateMutability": "view",
      "type": "function"
    },
    {
      "inputs": [
        {
          "internalType": "address",
          "name": "from",
          "type": "address"
        },
        {
          "internalType": "address",
          "name": "to",
          "type": "address"
        },
        {
          "internalType": "uint256",
          "name": "tokenId",
          "type": "uint256"
        }
      ],
      "name": "transferFrom",
      "outputs": [],
      "stateMutability": "nonpayable",
      "type": "function"
    },
    {
      "inputs": [
        {
          "internalType": "address",
          "name": "newOwner",
          "type": "address"
        }
      ],
      "name": "transferOwnership",
      "outputs": [],
      "stateMutability": "nonpayable",
      "type": "function"
    }
  ],
  "bytecode": "0x60806040523480156200001157600080fd5b506040805180820182526008815267105c9d1a1853919560c21b602080830191825283518085019094526005845264415254484160d81b9084015281519192916200005f91600091620000ee565b50805162000075906001906020840190620000ee565b505050620000926200008c6200009860201b60201c565b6200009c565b620001d1565b3390565b600780546001600160a01b038381166001600160a01b0319831681179093556040519116919082907f8be0079c531659141344cd1fd0a4f28419497f9722a3daafe3b4186f6b6457e090600090a35050565b828054620000fc9062000194565b90600052602060002090601f0160209004810192826200012057600085556200016b565b82601f106200013b57805160ff19168380011785556200016b565b828001600101855582156200016b579182015b828111156200016b5782518255916020019190600101906200014e565b50620001799291506200017d565b5090565b5b808211156200017957600081556001016200017e565b600181811c90821680620001a957607f821691505b60208210811415620001cb57634e487b7160e01b600052602260045260246000fd5b50919050565b611c7580620001e16000396000f3fe608060405234801561001057600080fd5b50600436106101215760003560e01c806370a08231116100ad578063b379e4e711610071578063b379e4e714610257578063b88d4fde1461026c578063c87b56dd1461027f578063e985e9c514610292578063f2fde38b146102ce57600080fd5b806370a0823114610202578063715018a6146102235780638da5cb5b1461022b57806395d89b411461023c578063a22cb4651461024457600080fd5b8063172232f3116100f4578063172232f3146101a357806320032464146101b657806323b872dd146101c957806342842e0e146101dc5780636352211e146101ef57600080fd5b806301ffc9a71461012657806306fdde031461014e578063081812fc14610163578063095ea7b31461018e575b600080fd5b610139610134366004611670565b6102e1565b60405190151581526020015b60405180910390f35b610156610333565b60405161014591906116e5565b6101766101713660046116f8565b6103c5565b6040516001600160a01b039091168152602001610145565b6101a161019c36600461172d565b610452565b005b6101a16101b13660046117e3565b610568565b600954610176906001600160a01b031681565b6101a16101d736600461182c565b6106b0565b6101a16101ea36600461182c565b6106e1565b6101766101fd3660046116f8565b6106fc565b610215610210366004611868565b610773565b604051908152602001610145565b6101a16107fa565b6007546001600160a01b0316610176565b610156610860565b6101a1610252366004611883565b61086f565b61025f61087e565b60405161014591906118bf565b6101a161027a366004611947565b61098f565b61015661028d3660046116f8565b6109c7565b6101396102a03660046119c3565b6001600160a01b03918216600090815260056020908152604080832093909416825291909152205460ff1690565b6101a16102dc366004611868565b610b3e565b60006001600160e01b031982166380ac58cd60e01b148061031257506001600160e01b03198216635b5e139f60e01b145b8061032d57506301ffc9a760e01b6001600160e01b03198316145b92915050565b606060008054610342906119f6565b80601f016020809104026020016040519081016040528092919081815260200182805461036e906119f6565b80156103bb5780601f10610390576101008083540402835291602001916103bb565b820191906000526020600020905b81548152906001019060200180831161039e57829003601f168201915b5050505050905090565b60006103d082610c09565b6104365760405162461bcd60e51b815260206004820152602c60248201527f4552433732313a20617070726f76656420717565727920666f72206e6f6e657860448201526b34b9ba32b73a103a37b5b2b760a11b60648201526084015b60405180910390fd5b506000908152600460205260409020546001600160a01b031690565b600061045d826106fc565b9050806001600160a01b0316836001600160a01b031614156104cb5760405162461bcd60e51b815260206004820152602160248201527f4552433732313a20617070726f76616c20746f2063757272656e74206f776e656044820152603960f91b606482015260840161042d565b336001600160a01b03821614806104e757506104e781336102a0565b6105595760405162461bcd60e51b815260206004820152603860248201527f4552433732313a20617070726f76652063616c6c6572206973206e6f74206f7760448201527f6e6572206e6f7220617070726f76656420666f7220616c6c0000000000000000606482015260840161042d565b6105638383610c26565b505050565b610576600880546001019055565b600061058160085490565b905061058d3382610c94565b6105978183610cae565b6105d66040518060400160405280601981526020017f4e657720546f6b656e206973206d696e7465642061742025730000000000000081525083610d39565b604080516060810182523381526020808201848152928201858152600a805460018101825560009190915283517fc65a7bb8d6351c1cf70c95a316cc6a92839c986682d98bc35f958f4883f9d2a8600390920291820180546001600160a01b0319166001600160a01b0390921691909117815594517fc65a7bb8d6351c1cf70c95a316cc6a92839c986682d98bc35f958f4883f9d2a9820155905180519394936106a9937fc65a7bb8d6351c1cf70c95a316cc6a92839c986682d98bc35f958f4883f9d2aa9093019291909101906115c1565b5050505050565b6106ba3382610d7e565b6106d65760405162461bcd60e51b815260040161042d90611a31565b610563838383610e67565b6105638383836040518060200160405280600081525061098f565b6000818152600260205260408120546001600160a01b03168061032d5760405162461bcd60e51b815260206004820152602960248201527f4552433732313a206f776e657220717565727920666f72206e6f6e657869737460448201526832b73a103a37b5b2b760b91b606482015260840161042d565b60006001600160a01b0382166107de5760405162461bcd60e51b815260206004820152602a60248201527f4552433732313a2062616c616e636520717565727920666f7220746865207a65604482015269726f206164647265737360b01b606482015260840161042d565b506001600160a01b031660009081526003602052604090205490565b6007546001600160a01b031633146108545760405162461bcd60e51b815260206004820181905260248201527f4f776e61626c653a2063616c6c6572206973206e6f7420746865206f776e6572604482015260640161042d565b61085e6000611003565b565b606060018054610342906119f6565b61087a338383611055565b5050565b6060600a805480602002602001604051908101604052809291908181526020016000905b82821015610986576000848152602090819020604080516060810182526003860290920180546001600160a01b03168352600181015493830193909352600283018054929392918401916108f5906119f6565b80601f0160208091040260200160405190810160405280929190818152602001828054610921906119f6565b801561096e5780601f106109435761010080835404028352916020019161096e565b820191906000526020600020905b81548152906001019060200180831161095157829003601f168201915b505050505081525050815260200190600101906108a2565b50505050905090565b6109993383610d7e565b6109b55760405162461bcd60e51b815260040161042d90611a31565b6109c184848484611124565b50505050565b60606109d282610c09565b610a385760405162461bcd60e51b815260206004820152603160248201527f45524337323155524953746f726167653a2055524920717565727920666f72206044820152703737b732bc34b9ba32b73a103a37b5b2b760791b606482015260840161042d565b60008281526006602052604081208054610a51906119f6565b80601f0160208091040260200160405190810160405280929190818152602001828054610a7d906119f6565b8015610aca5780601f10610a9f57610100808354040283529160200191610aca565b820191906000526020600020905b815481529060010190602001808311610aad57829003601f168201915b505050505090506000610ae860408051602081019091526000815290565b9050805160001415610afb575092915050565b815115610b2d578082604051602001610b15929190611a82565b60405160208183030381529060405292505050919050565b610b3684611157565b949350505050565b6007546001600160a01b03163314610b985760405162461bcd60e51b815260206004820181905260248201527f4f776e61626c653a2063616c6c6572206973206e6f7420746865206f776e6572604482015260640161042d565b6001600160a01b038116610bfd5760405162461bcd60e51b815260206004820152602660248201527f4f776e61626c653a206e6577206f776e657220697320746865207a65726f206160448201526564647265737360d01b606482015260840161042d565b610c0681611003565b50565b6000908152600260205260409020546001600160a01b0316151590565b600081815260046020526040902080546001600160a01b0319166001600160a01b0384169081179091558190610c5b826106fc565b6001600160a01b03167f8c5be1e5ebec7d5bd14f71427d1e84f3dd0314c0f7b2291e5b200ac8c7c3b92560405160405180910390a45050565b61087a82826040518060200160405280600081525061122f565b610cb782610c09565b610d1a5760405162461bcd60e51b815260206004820152602e60248201527f45524337323155524953746f726167653a2055524920736574206f66206e6f6e60448201526d32bc34b9ba32b73a103a37b5b2b760911b606482015260840161042d565b60008281526006602090815260409091208251610563928401906115c1565b61087a8282604051602401610d4f929190611ab1565b60408051601f198184030181529190526020810180516001600160e01b0316634b5c427760e01b179052611262565b6000610d8982610c09565b610dea5760405162461bcd60e51b815260206004820152602c60248201527f4552433732313a206f70657261746f7220717565727920666f72206e6f6e657860448201526b34b9ba32b73a103a37b5b2b760a11b606482015260840161042d565b6000610df5836106fc565b9050806001600160a01b0316846001600160a01b03161480610e3c57506001600160a01b0380821660009081526005602090815260408083209388168352929052205460ff165b80610b365750836001600160a01b0316610e55846103c5565b6001600160a01b031614949350505050565b826001600160a01b0316610e7a826106fc565b6001600160a01b031614610ede5760405162461bcd60e51b815260206004820152602560248201527f4552433732313a207472616e736665722066726f6d20696e636f72726563742060448201526437bbb732b960d91b606482015260840161042d565b6001600160a01b038216610f405760405162461bcd60e51b8152602060048201526024808201527f4552433732313a207472616e7366657220746f20746865207a65726f206164646044820152637265737360e01b606482015260840161042d565b610f4b600082610c26565b6001600160a01b0383166000908152600360205260408120805460019290610f74908490611af5565b90915550506001600160a01b0382166000908152600360205260408120805460019290610fa2908490611b0c565b909155505060008181526002602052604080822080546001600160a01b0319166001600160a01b0386811691821790925591518493918716917fddf252ad1be2c89b69c2b068fc378daa952ba7f163c4a11628f55a4df523b3ef91a4505050565b600780546001600160a01b038381166001600160a01b0319831681179093556040519116919082907f8be0079c531659141344cd1fd0a4f28419497f9722a3daafe3b4186f6b6457e090600090a35050565b816001600160a01b0316836001600160a01b031614156110b75760405162461bcd60e51b815260206004820152601960248201527f4552433732313a20617070726f766520746f2063616c6c657200000000000000604482015260640161042d565b6001600160a01b03838116600081815260056020908152604080832094871680845294825291829020805460ff191686151590811790915591519182527f17307eab39ab6107e8899845ad3d59bd9653f200f220920489ca2b5937696c31910160405180910390a3505050565b61112f848484610e67565b61113b84848484611283565b6109c15760405162461bcd60e51b815260040161042d90611b24565b606061116282610c09565b6111c65760405162461bcd60e51b815260206004820152602f60248201527f4552433732314d657461646174613a2055524920717565727920666f72206e6f60448201526e3732bc34b9ba32b73a103a37b5b2b760891b606482015260840161042d565b60006111dd60408051602081019091526000815290565b905060008151116111fd5760405180602001604052806000815250611228565b8061120784611390565b604051602001611218929190611a82565b6040516020818303038152906040525b9392505050565b611239838361148e565b6112466000848484611283565b6105635760405162461bcd60e51b815260040161042d90611b24565b80516a636f6e736f6c652e6c6f67602083016000808483855afa5050505050565b60006001600160a01b0384163b1561138557604051630a85bd0160e11b81526001600160a01b0385169063150b7a02906112c7903390899088908890600401611b76565b602060405180830381600087803b1580156112e157600080fd5b505af1925050508015611311575060408051601f3d908101601f1916820190925261130e91810190611bb3565b60015b61136b573d80801561133f576040519150601f19603f3d011682016040523d82523d6000602084013e611344565b606091505b5080516113635760405162461bcd60e51b815260040161042d90611b24565b805181602001fd5b6001600160e01b031916630a85bd0160e11b149050610b36565b506001949350505050565b6060816113b45750506040805180820190915260018152600360fc1b602082015290565b8160005b81156113de57806113c881611bd0565b91506113d79050600a83611c01565b91506113b8565b60008167ffffffffffffffff8111156113f9576113f9611757565b6040519080825280601f01601f191660200182016040528015611423576020820181803683370190505b5090505b8415610b3657611438600183611af5565b9150611445600a86611c15565b611450906030611b0c565b60f81b81838151811061146557611465611c29565b60200101906001600160f81b031916908160001a905350611487600a86611c01565b9450611427565b6001600160a01b0382166114e45760405162461bcd60e51b815260206004820181905260248201527f4552433732313a206d696e7420746f20746865207a65726f2061646472657373604482015260640161042d565b6114ed81610c09565b1561153a5760405162461bcd60e51b815260206004820152601c60248201527f4552433732313a20746f6b656e20616c7265616479206d696e74656400000000604482015260640161042d565b6001600160a01b0382166000908152600360205260408120805460019290611563908490611b0c565b909155505060008181526002602052604080822080546001600160a01b0319166001600160a01b03861690811790915590518392907fddf252ad1be2c89b69c2b068fc378daa952ba7f163c4a11628f55a4df523b3ef908290a45050565b8280546115cd906119f6565b90600052602060002090601f0160209004810192826115ef5760008555611635565b82601f1061160857805160ff1916838001178555611635565b82800160010185558215611635579182015b8281111561163557825182559160200191906001019061161a565b50611641929150611645565b5090565b5b808211156116415760008155600101611646565b6001600160e01b031981168114610c0657600080fd5b60006020828403121561168257600080fd5b81356112288161165a565b60005b838110156116a8578181015183820152602001611690565b838111156109c15750506000910152565b600081518084526116d181602086016020860161168d565b601f01601f19169290920160200192915050565b60208152600061122860208301846116b9565b60006020828403121561170a57600080fd5b5035919050565b80356001600160a01b038116811461172857600080fd5b919050565b6000806040838503121561174057600080fd5b61174983611711565b946020939093013593505050565b634e487b7160e01b600052604160045260246000fd5b600067ffffffffffffffff8084111561178857611788611757565b604051601f8501601f19908116603f011681019082821181831017156117b0576117b0611757565b816040528093508581528686860111156117c957600080fd5b858560208301376000602087830101525050509392505050565b6000602082840312156117f557600080fd5b813567ffffffffffffffff81111561180c57600080fd5b8201601f8101841361181d57600080fd5b610b368482356020840161176d565b60008060006060848603121561184157600080fd5b61184a84611711565b925061185860208501611711565b9150604084013590509250925092565b60006020828403121561187a57600080fd5b61122882611711565b6000806040838503121561189657600080fd5b61189f83611711565b9150602083013580151581146118b457600080fd5b809150509250929050565b60006020808301818452808551808352604092508286019150828160051b87010184880160005b8381101561193957888303603f19018552815180516001600160a01b0316845287810151888501528601516060878501819052611925818601836116b9565b9689019694505050908601906001016118e6565b509098975050505050505050565b6000806000806080858703121561195d57600080fd5b61196685611711565b935061197460208601611711565b925060408501359150606085013567ffffffffffffffff81111561199757600080fd5b8501601f810187136119a857600080fd5b6119b78782356020840161176d565b91505092959194509250565b600080604083850312156119d657600080fd5b6119df83611711565b91506119ed60208401611711565b90509250929050565b600181811c90821680611a0a57607f821691505b60208210811415611a2b57634e487b7160e01b600052602260045260246000fd5b50919050565b60208082526031908201527f4552433732313a207472616e736665722063616c6c6572206973206e6f74206f6040820152701ddb995c881b9bdc88185c1c1c9bdd9959607a1b606082015260800190565b60008351611a9481846020880161168d565b835190830190611aa881836020880161168d565b01949350505050565b604081526000611ac460408301856116b9565b8281036020840152611ad681856116b9565b95945050505050565b634e487b7160e01b600052601160045260246000fd5b600082821015611b0757611b07611adf565b500390565b60008219821115611b1f57611b1f611adf565b500190565b60208082526032908201527f4552433732313a207472616e7366657220746f206e6f6e20455243373231526560408201527131b2b4bb32b91034b6b83632b6b2b73a32b960711b606082015260800190565b6001600160a01b0385811682528416602082015260408101839052608060608201819052600090611ba9908301846116b9565b9695505050505050565b600060208284031215611bc557600080fd5b81516112288161165a565b6000600019821415611be457611be4611adf565b5060010190565b634e487b7160e01b600052601260045260246000fd5b600082611c1057611c10611beb565b500490565b600082611c2457611c24611beb565b500690565b634e487b7160e01b600052603260045260246000fdfea2646970667358221220e9666abfa38fe7768c8905cc9e689742abdc4326153cfeff342e6e1ce4e49bc664736f6c63430008090033",
  "linkReferences": {},
  "deployedLinkReferences": {}
}