{
  "_format": "hh-sol-artifact-1",
  "contractName": "Greeter",
  "sourceName": "contracts/Greeter.sol",
  "abi": [
    {
      "inputs": [
        {
          "internalType": "address",
          "name": "_owner",
          "type": "address"
        },
        {
          "internalType": "uint256",
          "name": "_tokenID",
          "type": "uint256"
        }
      ],
      "stateMutability": "nonpayable",
      "type": "constructor"
    },
    {
      "inputs": [],
      "name": "greet",
      "outputs": [
        {
          "internalType": "string",
          "name": "",
          "type": "string"
        }
      ],
      "stateMutability": "view",
      "type": "function"
    },
    {
      "inputs": [],
      "name": "greeting",
      "outputs": [
        {
          "internalType": "string",
          "name": "",
          "type": "string"
        }
      ],
      "stateMutability": "view",
      "type": "function"
    },
    {
      "inputs": [],
      "name": "owner",
      "outputs": [
        {
          "internalType": "address",
          "name": "",
          "type": "address"
        }
      ],
      "stateMutability": "view",
      "type": "function"
    },
    {
      "inputs": [
        {
          "internalType": "string",
          "name": "_greeting",
          "type": "string"
        }
      ],
      "name": "setGreeting",
      "outputs": [],
      "stateMutability": "nonpayable",
      "type": "function"
    }
  ],
  "bytecode": "0x608060405234801561001057600080fd5b5060405161064238038061064283398101604081905261002f91610057565b600055600180546001600160a01b0319166001600160a01b0392909216919091179055610091565b6000806040838503121561006a57600080fd5b82516001600160a01b038116811461008157600080fd5b6020939093015192949293505050565b6105a2806100a06000396000f3fe608060405234801561001057600080fd5b506004361061004c5760003560e01c80638da5cb5b14610051578063a413686214610081578063cfae321714610096578063ef690cc0146100ab575b600080fd5b600154610064906001600160a01b031681565b6040516001600160a01b0390911681526020015b60405180910390f35b61009461008f3660046103b3565b6100b3565b005b61009e610177565b60405161007891906104b1565b61009e610209565b61016060405180606001604052806023815260200161054a60239139600280546100dc906104cb565b80601f0160208091040260200160405190810160405280929190818152602001828054610108906104cb565b80156101555780601f1061012a57610100808354040283529160200191610155565b820191906000526020600020905b81548152906001019060200180831161013857829003601f168201915b505050505083610297565b8051610173906002906020840190610304565b5050565b606060028054610186906104cb565b80601f01602080910402602001604051908101604052809291908181526020018280546101b2906104cb565b80156101ff5780601f106101d4576101008083540402835291602001916101ff565b820191906000526020600020905b8154815290600101906020018083116101e257829003601f168201915b5050505050905090565b60028054610216906104cb565b80601f0160208091040260200160405190810160405280929190818152602001828054610242906104cb565b801561028f5780601f106102645761010080835404028352916020019161028f565b820191906000526020600020905b81548152906001019060200180831161027257829003601f168201915b505050505081565b6102de8383836040516024016102af93929190610506565b60408051601f198184030181529190526020810180516001600160e01b0316632ced7cef60e01b1790526102e3565b505050565b80516a636f6e736f6c652e6c6f67602083016000808483855afa5050505050565b828054610310906104cb565b90600052602060002090601f0160209004810192826103325760008555610378565b82601f1061034b57805160ff1916838001178555610378565b82800160010185558215610378579182015b8281111561037857825182559160200191906001019061035d565b50610384929150610388565b5090565b5b808211156103845760008155600101610389565b634e487b7160e01b600052604160045260246000fd5b6000602082840312156103c557600080fd5b813567ffffffffffffffff808211156103dd57600080fd5b818401915084601f8301126103f157600080fd5b8135818111156104035761040361039d565b604051601f8201601f19908116603f0116810190838211818310171561042b5761042b61039d565b8160405282815287602084870101111561044457600080fd5b826020860160208301376000928101602001929092525095945050505050565b6000815180845260005b8181101561048a5760208185018101518683018201520161046e565b8181111561049c576000602083870101525b50601f01601f19169290920160200192915050565b6020815260006104c46020830184610464565b9392505050565b600181811c908216806104df57607f821691505b6020821081141561050057634e487b7160e01b600052602260045260246000fd5b50919050565b6060815260006105196060830186610464565b828103602084015261052b8186610464565b9050828103604084015261053f8185610464565b969550505050505056fe4368616e67696e67206772656574696e672066726f6d202725732720746f2027257327a2646970667358221220dd2eb1bc5e699ca292c33d246c0f37618c260ca4b878fc6563eb1c10b7688e9664736f6c63430008090033",
  "linkReferences": {},
  "deployedLinkReferences": {}
}